:020000040800F2
:10000000000800209D010008A5010008A7010008C4
:10001000A9010008AB010008AD01000800000000C4
:10002000000000000000000000000000AF01000818
:10003000B101000800000000B3010008B50100088C
:10004000B7010008B7010008B7010008B7010008B0
:10005000B7010008B7010008B701000895170008AC
:10006000B7010008B7010008B7010008B701000890
:10007000B7010008B7010008B7010008B701000880
:10008000B7010008B7010008B7010008B701000870
:10009000910E0008B7010008B7010008B701000879
:1000A000B7010008B7010008B7010008B701000850
:1000B000B7010008B7010008B7010008B701000840
:1000C000B7010008B7010008B7010008B701000830
:1000D000B7010008B7010008B7010008B701000820
:1000E000B7010008B7010008B7010008B701000810
:1000F000B7010008B7010008B7010008B701000800
:10010000B7010008B701000805200008B701000882
:10011000B7010008B7010008B7010008B7010008DF
:10012000B7010008B7010008B7010008B7010008CF
:10013000B7010008B7010008B7010008B7010008BF
:1001400031110008B7010008B7010008B701000825
:10015000B7010008B7010008B7010008B70100089F
:10016000B7010008B7010008B7010008B70100088F
:10017000B7010008B7010008B7010008B70100087F
:10018000B7010008B7010008DFF80CD000F034FB1D
:1001900000480047B948000800080020064880478A
:1001A00006480047FEE7FEE7FEE7FEE7FEE7FEE75C
:1001B000FEE7FEE7FEE7FEE7191E000889010008DA
:1001C0002DE9FE4F804681EA0300C00F0C460090E7
:1001D00021F0004123F00045B8EB0200A94105D20F
:1001E0004046214690461C460B46024623F00040FE
:1001F000104347D0270DC7F30A00C3F30A510290FA
:10020000401A019040286BDAC3F3130040F4801BBE
:100210000098924620B10023D2EB030A63EB0B0B4C
:1002200001985946C0F14002504600F009FA0646CE
:100230000D4650465946019A00F021FA10EB08008D
:100240006141002487EA115284EAE7731A4340D0DF
:10025000009A62B3019A012A4FEA075215DC001B8B
:1002600061EB02014FF0004202EA0752CDE9004281
:10027000001C41F5801132462B4600F058FA03B0BD
:10028000BDE8F08F40462146F9E7001B61EB020113
:10029000001C41F5801300185B412018A2F50017DF
:1002A00047EB030140EAD570B6196D4111E06D08C6
:1002B0004FEA360645EAC0754FEA0752001B61EB6C
:1002C0000201001C41F5801149084FEA3000001975
:1002D000514132462B4603B0BDE8F04F00F018BA4A
:1002E0000098012240000023D0EB020263EBE07390
:1002F000009821464FEAE074B8EB000061EB04017E
:10030000E9E783F000435BE781F0004158E72DE91E
:10031000FE4F81EA030404F0004421F00041009400
:100320004FF0000B23F0004350EA01045ED052EA84
:1003300003045BD0C3F30A54C1F30A552C44A4F25E
:10034000F3340194A0FB0254C1F3130141F4801172
:10035000C3F3130343F4801301FB024400FB034E79
:10036000840A970A44EA815447EA8357A4FB076842
:1003700002958D0A05FB07854FEA932C04FB0C546C
:100380002705029D4FEA065847EA1637B5EB0805E0
:100390006EEB070C870E920E47EA811742EA831232
:1003A000A7FB0201B6EB0B0164EB00042B0D43EA43
:1003B0000C335E1844EB1C50DA465146E7FB020151
:1003C000C5F313044FEA0B3343EA14534FEA0432E4
:1003D000019C43EA0603A4F10C040294009CCDE9BD
:1003E00000B400F0A4F903B0BDE8F08F002001468E
:1003F000F9E72DE9F04D81EA030404F0004B21F008
:10040000004514464FF0000A23F0004150EA05026F
:1004100020D054EA01021DD0C5F30A570246C5F3A5
:100420001303C1F31300C1F30A5640F4801543F4DB
:100430008013A7EB0608101BD64608F2FD3873EBB5
:10044000050002D308F1010801E092185B41B8F100
:10045000000F03DA00200146BDE8F08D00204FF4C4
:100460008011064684460EE0171B73EB050705D383
:10047000121B63EB050306434CEA010C49084FEAE3
:10048000300092185B4150EA0107EDD152EA0300B7
:1004900012D082EA040083EA0501084305D0101B4C
:1004A000AB4106D20122002306E000224FF00043B8
:1004B00002E06FF0010253101AEB06004CEB0851FA
:1004C00010EB0A0041EB0B01BDE8F04D00F020B944
:1004D0000EB5C10F80EAE0700844CA07002140F25F
:1004E00033438DE80E000A460B4600F020F903B0B6
:1004F00000BD0EB540F2334102910021CDE900115B
:100500000A460B4600F013F903B000BD70B5C1F305
:100510000A5201F000450024C1F3130140F2FF33F9
:1005200041F480119A4201DA002070BD40F2334359
:100530009A42A2F2334203DC524200F090F800E00B
:1005400090402C43F1D0404270BDC1F30A5210B527
:10055000C1F3130140F2FF3341F480119A4201DAF2
:10056000002010BD40F233439A42A2F2334203DC32
:10057000524200F074F810BD904010BD30B5041E1A
:1005800071F1000404DB4FF00044404264EB0101D0
:10059000141E73F1000405DB1C464FF00043524269
:1005A00063EB04038B4208BF824230BD30B5041EAA
:1005B00071F1000404DB4FF00044404264EB0101A0
:1005C000141E73F1000405DB1C464FF00043524239
:1005D00063EB0403994208BF904230BD01F0004331
:1005E00030B421F0004150EA010206D00A0DA2F514
:1005F0006072C1F31301002A02DC30BC0020704796
:10060000440F44EAC104C100E01830BC00EBC25002
:1006100000F047B830B50B460146002020220124E7
:1006200009E021FA02F59D4205D303FA02F5491BC0
:1006300004FA02F52844151EA2F10102F1DC30BDD6
:10064000202A04DB203A00FA02F100207047914092
:10065000C2F1200320FA03F3194390407047202A87
:1006600004DB203A21FA02F00021704721FA02F35C
:10067000D040C2F120029140084319467047202A19
:1006800006DBCB17203A41FA02F043EAE07306E0BA
:1006900041FA02F3D040C2F12002914008431946CA
:1006A00070470029A8BF7047401C490008BF20F0D0
:1006B0000100704710B4B0FA80FC00FA0CF050EA68
:1006C000010404BF10BC704749B1CCF1200421FAE9
:1006D00004F411FA0CF118BF012121430843A3EBE4
:1006E0000C01CB1D4FEA00614FEA102042BF0020F1
:1006F00010BC704700EBC35010440029A4BF10BCCD
:100700007047401C490008BF20F0010010BC704732
:1007100010B5141E73F1000408DA401C41F1000109
:1007200092185B411A4301D120F0010010BD2DE960
:10073000F04D92469B4611B1B1FA81F202E0B0FA57
:1007400080F220329046FFF77BFF04460F4640EAD6
:100750000A0041EA0B0153465A46084313D011469A
:1007600053EA010019D0C8F140025046FFF777FF65
:1007700005460E46504659464246FFF761FF08437C
:1007800005D0012004E020463946BDE8F08D002068
:10079000054346EAE0762C4337430A986305E40AAA
:1007A000A0EB08000022FD0A44EA47540A3002D5B3
:1007B00000200146E9E7010510196941DDE9084516
:1007C00000196941BDE8F04DA2E770B521F0004382
:1007D00003430CD0C1F30A550024D5EB040564EBA8
:1007E0000403D617AD1AB34102DB0020014670BDE9
:1007F000201841EB025170BD064C074D06E0E06841
:1008000040F0010394E8070098471034AC42F6D357
:10081000FFF7BEFC884A0008A84A00082DE9F04D01
:1008200000231A461B1A8A4103DB00200146BDE85B
:10083000F08DC1F30A52C1F3130141F480154FF05A
:10084000000BD10702D100186D41521E002704464B
:1008500040F2FF11384601EB620A3E4680460246EE
:1008600000204FF48011FFF7FAFEC2197141BB1846
:1008700046EB0100B4EB030C75EB000C04D3E41A57
:1008800065EB000517460E46241908F101006D417D
:1008900080463428E3DDF91946EB0600091BA84120
:1008A00003D24FF0FF32134601E0002213461BEB48
:1008B000070046EB0A51BDE8F04DFFF729BF70B5C0
:1008C0008C1810F8015B15F0070301D110F8013BFB
:1008D0002A1106D110F8012B03E010F8016B01F882
:1008E000016B5B1EF9D12B0705D40023521E0DD4DA
:1008F00001F8013BFAE710F8013BCB1A921C03E028
:1009000013F8015B01F8015B521EF9D5A142D8D35F
:10091000002070BD002904D0816841F00101816090
:100920007047816821F001018160704710B5074C64
:10093000226807490A40D0E900131943D0E9023080
:10094000034319431143216010BD000004230140FB
:10095000E030FCFF002904D0816841F4807181609F
:100960007047816821F4807181607047002904D04C
:10097000816841F4007181607047816821F40071E1
:10098000816070477CB50121042001F003F9002546
:100990008DF807500120009003248DF80440114E7B
:1009A0006946304600F064FF0121084601F0F2F884
:1009B0008DF80750102100918DF8044069460A48CF
:1009C00000F056FF0121042001F0E4F88DF80750F3
:1009D000042000908DF804406946304600F048FF3E
:1009E0007CBD0000000802400000024010B5FFF787
:1009F000C9FFBDE8104000F027B8000030B54268DC
:100A00000F4B1A400C790B6842EA042213434360EF
:100A100083680C4A1340D1E9034222434D798C6824
:100A200044EA450422431A438260C26A22F47002F7
:100A3000097D491EC9B242EA0151C16230BD0000C0
:100A4000FFFEFFFCFDF7FFC0F0B599B0012188055E
:100A500001F0A0F801210E02304601F0C5F803278D
:100A60000E9700240A940D941594012516952C4890
:100A70000C90179468031290C01010901396294898
:100A80000B901894C01411900F9480011490264E6E
:100A90000AA9304600F0FAFD0121304600F0EAFDD7
:100AA00004A800F082F88DF81550089407948DF88A
:100AB0002470069404948DF814501A4D04A94C3DEA
:100AC0002846FFF79BFF029400944FF48031019178
:100AD00003946846FFF72AFF022301220A212846D1
:100AE00000F024F802231A460421284600F01EF8DC
:100AF000022303220C21284600F018F80121284681
:100B0000FFF734FF01212846FFF724FF0121284683
:100B1000FFF700FF284600F043F819B0F0BD0000D1
:100B2000580000204C2001401064024070B5072698
:100B300009290AD9C568A1F10A0404EB4404A640B6
:100B4000B543A3401D43C56007E0056901EB4104BF
:100B5000A640B543A3401D4305611F23072A09D2C0
:100B6000446B521E02EB820293409C4391400C4323
:100B7000446370BD0D2A09D2046BD21F02EB8202BE
:100B800093409C4391400C43046370BDC46A0D3A8A
:100B900002EB820293409C4391400C43C46270BDBF
:100BA000816841F0804181607047002101600171DE
:100BB00041718160C16001610121017570470000D0
:100BC0001CB50121102000F0E5FF00208DF8040085
:100BD0008DF8070002208DF805000420009069467A
:100BE000014800F045FE1CBD001002401CB501216B
:100BF000582000F0CFFF01208DF8040000218DF86F
:100C000006108DF8070002208DF805000003009003
:100C10006946084800F02CFE4FF4007000906946C9
:100C2000054800F025FE802000906946034800F04A
:100C30001FFE1CBD00100240000C024000180240C4
:100C40007FB50121092000F0A5FF0121062000F059
:100C5000A1FF01208DF80C0000248DF80E408DF8C6
:100C60000F0002258DF80D50402002900D4E02A974
:100C7000304600F0FDFD4021304600F055FE8DF875
:100C800004408DF807408DF80550009569460648E8
:100C900000F0EEFD202000906946044800F0E8FDD9
:100CA0007FBD0000000C024000080240000002402E
:100CB0001CB50121082000F06DFF01208DF8040013
:100CC00000218DF806108DF8070002208DF8050030
:100CD00008200090044C6946204600F0C9FD082118
:100CE000204600F023FE1CBD000C02401CB5012173
:100CF000402000F04FFF01208DF8040000218DF806
:100D000006108DF8070002208DF80500C001009044
:100D10006946024800F0ACFD1CBD0000001802400E
:100D2000F0B58BB00121084600F034FF434F092293
:100D30000B21384600F0DAFD09220C21384600F07C
:100D4000D5FDB814099002268DF828608DF8296029
:100D500000248DF82A4001258DF82B5009A938462A
:100D600000F086FDE80209908DF8286009A9384650
:100D700000F07EFD4FF4C06000F002FF14208DF8FB
:100D800020008DF821508DF822408DF8235008A8BE
:100D900000F0C2FE0121480600F00AFF284E30464E
:100DA00000F066FA05A800F0B6FB8DF81A408DF841
:100DB0001B508DF81C508DF81D408DF81E408DF88D
:100DC0001F408DF816408DF8175006218DF8181029
:100DD00005208DF81900ADF8141005A9304600F073
:100DE000D7FA8DF80E508DF80F408DF81050ADF8F1
:100DF000044049F6A400ADF80600ADF80840ADF88F
:100E00000A40ADF80C408DF8115001A800F04CFAE2
:100E100001220221304600F0B1FA09480C30016885
:100E200041F020010160016841F02001016001688A
:100E300041F0200101600BB0F0BD00000000024055
:100E4000006400400FB42DE9F041DDE90B010024FE
:100E50008DF824008DF825100C4F06A9384600F0B7
:100E60006AFB064640F6FF7500E0641C31463846D2
:100E700000F0BCFB08B9AC42F7DBAC4204DB00205D
:100E8000BDE8F0015DF814FB0120F9E700640040C3
:100E90002DE9F0474148016881F008010160404AAE
:100EA0000021404800F0F6FA3D4C00253E4E2068F7
:100EB000B0F5C07F09D1E07A38B1302805D1B571DD
:100EC0003A48217B0173617B41736068B0F5927F82
:100ED0005ED17571F07B00285AD07078A0B3F0789D
:100EE00090B33348E27A4715DFF8C880DFF8C8903E
:100EF0004FF40051012A06D0022A0FD0032A18D03D
:100F0000042A31D121E000F011FD3946404600F0BD
:100F10000BFD8021484600F009FD25E000F006FDAC
:100F20003946404600F002FD8021484600F0FEFCB4
:100F30001AE000F0F9FC3946404600F0F5FC80214B
:100F4000484600F0F3FC0FE014E000F0EDFC3946F9
:100F5000404600F0EBFC8021484600F0E7FCF07BC7
:100F6000042801D001203074E07AF073032813D0F4
:100F70000020B0751148217B0173617B41731048DB
:100F8000A17B0173E17B4173207CB072A07C307542
:100F900025606560BDE8F0870120EAE7140802409B
:100FA000D80000200064004010000020280100202C
:100FB00000100240000C024000180240EC0000202B
:100FC000B0000020F0B58BB00121022000F0E2FD5E
:100FD000444F09220C21384600F088FC09220D21DB
:100FE000384600F083FC4FF40050099002268DF83B
:100FF00028608DF8296000248DF82A4001258DF89D
:101000002B5009A9384600F033FC280309908DF8CD
:10101000286009A9384600F02BFC4FF4C06000F0AE
:10102000AFFD40208DF820008DF821408DF8224042
:101030008DF8235008A800F06FFD0121880600F00C
:10104000B7FD294E304600F013F905A800F063FA09
:101050008DF81A408DF81B508DF81C508DF81D40EE
:101060008DF81E408DF81F408DF816408DF81750F2
:1010700006218DF8181005208DF81900ADF8141010
:1010800005A9304600F084F90E208DF80E008DF889
:101090000F408DF81050ADF8044049F6A400ADF8AB
:1010A0000600ADF80840ADF80A40ADF80C408DF8E8
:1010B000115001A800F0F8F80C49086840F0200031
:1010C000086001220221304600F058F90122022175
:1010D000304600F053F901220221304600F04EF96B
:1010E0000BB0F0BD00040240006800400C640040FA
:1010F0000FB42DE9F04100240C4F06A9384600F04A
:101100001AFA064640F6FF7500E0641C3146384680
:1011100000F06CFA08B9AC42F7DBAC4204DB00200B
:10112000BDE8F0015DF814FB0120F9E7006800401C
:101130002DE9F041464A0021464800F0ABF9444D04
:1011400040F2322201272968DFF80C81434C002647
:10115000A1F2322091424CD005DC112919D0B1F511
:101160009A7F54D150E0A0F58070D5384AD0B0F5C0
:101170007E7F4CD1E87AA074A87C012847D1A07B5F
:1011800050B3A07D40BBA7830121404600F0CCFBBB
:101190003DE02671E07BF8B1E97A04203F291FD0B9
:1011A000662923D0AB2902D0CC2930D115E0617853
:1011B00001B127746670E073E7744FF4005128485A
:1011C00000F0B2FB4FF40071404600F0AFFB80210D
:1011D000244800F0ABFBA67319E00220607016E013
:1011E0006178042900D02674607010E006206070D9
:1011F0000DE026721C48A97B8173E97BC173E97AF3
:10120000C17204E0E67102E06672A87BE0831749D0
:101210006868884217D1E87A102811D1617D0129C8
:101220000ED1E17B03290BD26675267026834021FF
:10123000404600F079FB0121404600F077FB02E0D8
:10124000512800D167752E606E60BDE8F081000006
:101250006000002000680040000C024010000020E8
:10126000001002400018024088000020F34063187C
:1012700010B50C4988420AD101214C06204600F0E5
:10128000A5FC2046BDE81040002100F09FBC0121D4
:101290008C06204600F09AFC2046BDE81040002154
:1012A00000F094BC00640040F0B5827A01219140C6
:1012B000304C226842F0010222602E4D1C352A6813
:1012C0008A432A602B4A067B0C322B4B002E14D10A
:1012D00016688E4316604688C78846EA0746877AAE
:1012E00003EBC707C7F840660688878846EA0746C3
:1012F000877A03EBC707C7F84466067B012E14D133
:1013000016680E4316604288068842EA0642867ACC
:1013100003EBC606C6F84026C288868842EA064223
:10132000867A03EBC603C3F84426124AC37A121D19
:101330003BB113680B4313600E4A0389143223B187
:1013400006E013688B431360F6E713688B43136062
:101350000389012B02D113680B431360407B0128E2
:1013600002D1286808432860206820F0010020602E
:10137000F0BD00000066004000600040002A03D07D
:1013800042690A434261704742698A434261704739
:1013900010B50022036823F002030360036843F0E2
:1013A000010303604FF6FF7300E0521C4468E4073A
:1013B00001D19A42F9D14268D2073ED08A79012AF6
:1013C0003DD0026822F080020260CA79012A3BD037
:1013D000026822F0400202600A7A012A39D00268CB
:1013E00022F0200202604A7A012A37D0026822F0F5
:1013F000100202608A7A012A35D0026822F00802BF
:101400000260CA7A012A33D0026822F00402026024
:101410008A78CC78920742EA04620C7942EA044264
:101420004C79098842EA0452491E0A43C2610168A4
:1014300021F001010160002120E0002010BD0268C0
:1014400042F080020260C0E7026842F0400202609F
:10145000C2E7026842F020020260C4E7026842F07C
:1014600010020260C6E7026842F008020260C8E7A4
:10147000026842F004020260CAE7491C4268D207CF
:1014800001D09942F9D14068C00701D0002010BDB9
:10149000012010BD10B500EB0113D3F8B04104F0EA
:1014A00004041472002C2CD0D3F8B041E40854602A
:1014B00003F5D8731C6804F0020454725C6804F0ED
:1014C0000F0494725C68240AD4749C68D4729C687B
:1014D000240A14739C68240C54739C68240E94731F
:1014E000DC68D473DC68240A1474DC68240C54743B
:1014F000DB681B0E937449B1016941F02001016161
:1015000010BDD3F8B041640D1460D1E7C16841F05B
:101510002001C16010BD00218171C1710172417251
:101520008172C1728170C170032101710221417108
:1015300001210180704730B50246002093685B01AD
:101540000AD49068000101D5012005E09068C00030
:1015500001D5022000E0042004283BD002EB001259
:10156000D2F8803103F00103C2F880310B7A93B3D3
:10157000D2F880414D681C434B7A43EAC5031C43B3
:10158000C2F880418B7A03F00F038B7202F5C072B0
:10159000536823F00F03536053688C7A23435360DE
:1015A000CB7A8C7B0D7B43EA04634C7B240444EAB6
:1015B000052423439360CB7B8C7C43EA04634C7CFF
:1015C000097C240444EA01210B43D360116841F0F3
:1015D0000101116030BDFFE7D2F880314C7A23431E
:1015E0000C8843EA4453C2F88031CBE7002200293B
:1015F00004D0012906D002290BD107E082681848DF
:10160000024006E082681748024002E082681648FD
:1016100002401649501A8A4218D007DC92B16FF086
:101620008060101810D0022809D113E0B0F5007FB7
:1016300012D00F4940180BD0B0F5003F0ED000205B
:10164000C0B270470220FBE70020F9E70020F7E76F
:101650000020F5E70120F3E70120F1E70120EFE7A3
:10166000030000040003000800000310000100084C
:101670000001FFF7002904D0016841F00101016079
:101680007047016821F001010160704730B50368BF
:10169000124A1340CC680A682243D1E905452C431D
:1016A0002243CC6922430C6A22434C6A22438C6A4F
:1016B00022434C6B22438C6B22431A4302604269E3
:1016C00022F00703D1E90B2422431A4342610A693D
:1016D00042604A6882608968C16030BD3F801CF00A
:1016E00070B586B00121084600F054FA012110209F
:1016F00000F07AFA1E4E07220A21304600F0F6F872
:1017000007220921304600F0F1F800248DF8164038
:1017100001208DF8170002258DF814504102049124
:101720008DF8155004A9304600F0A2F88DF8145039
:101730006802049004A9304600F09AF84FF4E130B2
:101740000090ADF80440ADF80640ADF80840ADF8A3
:101750000C400C20ADF80A00064C6946204602F009
:1017600027F80121204602F00FF806B070BD0000F6
:10177000000002400010014010B54EF66024002128
:10178000204601F0BDFD2046BDE81040002100F0DC
:10179000D7BB000010B5022000F026F8002818D0B2
:1017A0000C490D484A7C4AB14A7D3AB1CA7A2AB1FD
:1017B00001220A70402100F0B9F805E000220A7009
:1017C0000A83402100F0B0F8BDE81040022000F08C
:1017D00005B810BD10000020000C0240014908604F
:1017E00070470000143C014001460020024A126884
:1017F0000A4200D001207047143C014030B51B4A1A
:1018000083790168002B2AD013688B431360111D64
:101810000B680468A3430B60017911440B680468EA
:1018200023430B60114C08342168036899432160FD
:10183000231D19680568A94319604179102905D04D
:1018400011440A68006802430A6030BD21680268DA
:1018500011432160196800680143196030BD0079A7
:10186000104402688A43026030BD0000003C014021
:101870002DE9F041002201274FF0030C07FA02F591
:101880000B682B40AB422CD1066853000CFA03F4D2
:10189000A64306600E79D0F800809E4046EA08060E
:1018A00006600E79012E01D0022E12D18668A64361
:1018B00086604E79D0F808809E4046EA0806866029
:1018C0004668AE43466045688E799640B6B2354369
:1018D0004560C568A543C560CC799C40C3681C437E
:1018E000C460521C102AC9D3BDE8F08110B54B0763
:1018F000DB0E9A40C90800EB8100016A0F249C406E
:10190000A1430162016A1143016210BD0246002039
:1019100012690A4200D00120704702460020526935
:101920000A4200D00120704741837047018370470D
:1019300070B52DED088BA0F178069FED30BB9FEDC3
:10194000319B9FED32AB334C94ED021A84ED031AB8
:1019500094ED011A84ED021A30EEC00AC0EE201A8E
:101960009FED2D0A31EEC00A84ED010A70EE410AA6
:101970009FED2A1A60EE810A9FED291A40EE010AB6
:101980009FED280A30EE800ABCEEC00A10EE100A65
:1019900085B225803046FEF79BFD53EC1B2BFEF7EE
:1019A00028FD53EC192BFEF7B2FC53EC1A2BFEF773
:1019B000AEFC41EC180B2846FEF79BFD53EC182BB0
:1019C000FEF7F4FD0FD2B0B2FEF793FD53EC1B2BE4
:1019D000FEF70FFD53EC192BFEF799FC53EC1A2B75
:1019E000FEF795FC02E02088FEF783FDFEF7ADFDD3
:1019F00020800020BDEC088B70BD000000000000BE
:101A000000F09E400000000080CCDC4033333333D4
:101A10003333C33F4C0100200AD7233E0000484423
:101A200000007A440000000010B50446182002F0BF
:101A300073FF6060206018B100214161012010BD7A
:101A4000002010BD10B50648FFF7EEFF30B1044886
:101A50000830FFF7E9FF08B1012010BD002010BDDC
:101A60003C0100201CB50121242000F093F8012046
:101A70008DF8040000218DF806108DF807008DF810
:101A800005100820009069460848FFF7F1FE802005
:101A90000090074C69462046FFF7EAFEA115009129
:101AA00069462046FFF7E4FE1CBD00000008024026
:101AB00000140240FEB532208DF8080001248DF894
:101AC000094003208DF80A008DF80B4002A800F0B1
:101AD00023F807208DF8080000258DF8095002260C
:101AE0008DF80A608DF80B4002A800F015F801216E
:101AF000880300F079F80121022000F01BF900961C
:101B00008DF8045008208DF805008DF806406846D1
:101B1000FFF774FEFEBD000030B50F23C27801252B
:101B20000178002A1FD0154A126802F4E062C2F55B
:101B3000E062C2F30722C2F10404D3404278A2401B
:101B400084781C401443220101F1E02181F8002433
:101B5000007800F01F018D404009800000F1E02076
:101B6000C0F8005130BD01F01F00854048098000D9
:101B700000F1E020C0F8805130BD00000CED00E025
:101B80000249084302490860704700000000FA0556
:101B90000CED00E0054A002903D0116801431160F3
:101BA000704711688143116070470000303802406F
:101BB000054A002903D0116801431160704711687C
:101BC000814311607047000040380240054A0029F7
:101BD00003D011680143116070471168814311609F
:101BE0007047000020380240054A002903D01168E0
:101BF0000143116070471168814311607047000014
:101C000044380240054A002903D01168014311609D
:101C1000704711688143116070470000243802400A
:101C200070B5244B196801F00C01234C00291ED01B
:101C3000224E04291DD008291DD00460196801F026
:101C4000F00109091E4A545C0168E14041601C68CA
:101C500004F4E054A40A145D21FA04F484601B68BF
:101C600003F460435B0BD25CD140C16070BD046083
:101C7000E4E70660E2E70F4A121F1168C1F38055DE
:101C8000116801F03F0135B1B6FBF1F11468C4F3FE
:101C90008814614305E0B4FBF1F11468C4F38814BF
:101CA00061431268C2F30142521C5200B1FBF2F1CF
:101CB0000160C3E7083802400024F40040787D0149
:101CC000000000200FB42DE9F04100240C4F06A9BC
:101CD0003846FFF730FC064640F6FF7500E0641C0E
:101CE00031463846FFF782FC08B9AC42F7DBAC421C
:101CF00004DB0020BDE8F0015DF814FB0120F9E7EA
:101D0000006400401CB501210820FFF743FF0120BB
:101D10008DF8040000218DF806108DF807008DF86D
:101D20000510009069460248FFF7A2FD1CBD0000A7
:101D3000000C024010B58A07120F0F23934021F0C8
:101D400003040649214401F608010C689C430C6019
:101D50000B68904003430B6010BD00000030014051
:101D60000CB50022019200922749086840F48030A7
:101D700008604FF4A043086800F400300090019818
:101D8000401C0190009810B901989842F3D108685E
:101D9000800302D50120009000E000920098012805
:101DA00031D119484030026842F080520260174831
:101DB000026842F440420260134808300268026040
:101DC000026842F400420260026842F4A0520260DB
:101DD000021F0F4B13600A6842F080720A600A68A3
:101DE0009201FCD50B4A40F205711160016821F0A7
:101DF00003010160016841F0020101600168C1F363
:101E000081010229FAD10CBD003802400070004067
:101E100019544007003C024010B51248016841F4D3
:101E2000700101601048016841F0010101600E4A33
:101E300000210832116002680C4B1A400260031D39
:101E40000B4A1A60026822F48022026006480C30B5
:101E50000160FFF785FF03494FF00060803908609B
:101E600010BD000088ED00E000380240FFFFF6FEE4
:101E70001030002470B5048C24F001040484058B18
:101E8000048C25F0F3054FF6FF7606EA031313439F
:101E90002B4324F00A020A4342F001010383018428
:101EA00070BD70B5048C24F010040484058B068C7E
:101EB0004FF6FF7404EA011125F4734504EA033375
:101EC0002B4304EA02221A4326F0A0030B4343F0FB
:101ED00010010283018470BDF0B5048C24F4807479
:101EE0000484868B058C4FF6FF7707EA012426F0E1
:101EF000F30607EA03111143314325F4206222431C
:101F000042F4807281830284F0BD70B5048C24F4A5
:101F100080540484858B068C4FF6FF7404EA0131EB
:101F200025F4734504EA02222A4304EA03331343E7
:101F300026F420420A4342F480518383018470BD19
:101F400070B588B005460C4601210846FFF74CFEE7
:101F500001211020FFF71EFE4FF4206006900320A1
:101F60008DF81D0002208DF81C0001208DF81E0048
:101F70008DF81F00214E06A93046FFF779FC01229B
:101F800009213046FFF7B2FC01220B213046FFF752
:101F9000ADFC1B4E304601F027FA03A801F0CAFB46
:101FA000ADF80C4004950024ADF80E40ADF8144097
:101FB0008DF8164003A9304601F07EFB00231A4637
:101FC0000321304601F0E6FA684601F039FBADF82E
:101FD00008406946304601F002FB0121304601F01D
:101FE000F1F901221146304601F032FB7462012101
:101FF000304601F0EDF908B070BD0000001002405D
:10200000000001402DE9F04F2DED108B87B001212C
:10201000FE4801F0D8FA012874D1DFF8F483FD4DB1
:102020000024B8F81C1039B1B1F5967F04D801210D
:102030002846FFF772FC48B1B8F81C00A0F5807183
:102040002D3913D198F8150030B10FE0B8F81C0005
:10205000401CA8F81C0009E0A8F81C4088F80040C3
:10206000A8F8184040212846FFF75EFC98F80E00BB
:10207000F0B198F8170020B998F80600401C88F8CD
:10208000060098F80900401C88F8090098F8080034
:10209000401C88F8080098F80F0048B198F805002F
:1020A000401C88F8050098F80400401C88F80400DB
:1020B00098F8000030B1B8F81810972902D8491CD8
:1020C000A8F818100121D348FFF72EFC2021D24890
:1020D000FFF71CFCD14A012815D008211046FFF754
:1020E00025FC98F82C0010F001009FEDCD9B4FF4DB
:1020F00080799FEDCD8BCE4D4FF0010A08D001289D
:102100007CD107E1FDE308211046FFF70DFCE8E76D
:10211000C8480068A8F82800C74E706AA8F82600CA
:10212000C44847F230573946243801F09BFA394603
:10213000304601F097FA0320C04FA7F1280607EBBD
:10214000C00191ED000B411C07EBC10282ED000BB9
:1021500006EBC00206EBC10192ED000B81ED000B16
:10216000401E0028EBDAB8F82600A0F5EA40303827
:10217000FEF7AEF99FEDB2BB53EC1B2BFEF7C7F891
:102180009FEDB1CB53EC1C2BFEF733F99FEDB0DB89
:1021900053EC1D2BFEF72DF99FEDAFAB53EC1A2B33
:1021A000FEF7B5F841EC1E0B86ED00EBB8F8280001
:1021B000A0F5EA403038FEF78BF953EC1B2BFEF705
:1021C000A6F853EC1C2BFEF714F953EC1D2BFEF76D
:1021D00010F953EC1A2BFEF79AF841EC1F0B87ED20
:1021E00000FB97ED080B53EC192B51EC100BFEF78D
:1021F0008EF841EC1A0B97ED060B00E00EE39FED15
:10220000981B51EC100B53EC112BFEF780F897ED57
:10221000040B41EC1B0B53EC182B51EC100BFEF78D
:1022200076F841EC1C0B97ED020B9FED8F1B51ECE8
:10223000100B53EC112BFEF76AF841EC1D0B9FEDD0
:102240008C0B51EC1F0B53EC102BFEF760F853EC8A
:102250001D2BFDF7B5FF53EC1C2BFDF7B1FF53EC25
:102260001B2BFDF7ADFF53EC1A2BFDF7A9FF9FEDDC
:1022700082CB53EC1C2BFEF74AF8C8E90E0196ED11
:10228000080B53EC192B51EC100BFEF740F841EC06
:102290001A0B96ED060B9FED721B51EC100B53ECD5
:1022A000112BFEF734F896ED040B41EC1B0B53ECAD
:1022B000182B51EC100BFEF72AF841EC1D0B96ED94
:1022C000020B9FED691B51EC100B53EC112BFEF729
:1022D0001EF841EC1F0B9FED660B51EC1E0B53ECEF
:1022E000102BFEF714F853EC1F2BFDF769FF53EC8E
:1022F0001D2BFDF765FF53EC1B2BFDF761FF53EC26
:102300001A2BFDF75DFF53EC1C2BFEF700F8C8E914
:10231000100183E20120494E503600EB4002411C7F
:1023200001EB410136F8123026F8113006EB42027B
:1023300006EB410153884B8092888A80401E9FEDB6
:1023400050AB9FED51BB9FED52FB9FED53DB00283F
:10235000E3DA534801883180418871808088B080F9
:10236000B089FEF7C6F89FED3EEB53EC1E2BFDF750
:10237000CEFFCDE90201F088FEF7BBF853EC1F2B2E
:10238000FDF7C5FFCDE900013088FEF7B2F89FEDFB
:1023900038CB53EC1C2BFDF7BAFF9DED001B53EC23
:1023A000112BFDF70DFF9DED021B53EC112BFDF7DB
:1023B00007FF53EC1D2BFDF7AAFF53EC1A2BFEF77A
:1023C000F5F876D2B089FEF794F853EC1E2BFDF7A2
:1023D0009EFF41EC1A0BF088FEF78BF853EC1F2B95
:1023E000FDF795FFCDE902013088FEF782F853EC46
:1023F0001C2BFDF78CFF9DED021B53EC112BFDF701
:10240000DFFE53EC1A2BFDF7DBFE4CE0000C004026
:1024100010000020000C02400000024000080240B2
:102420009A9999999999B93F000000000000E03FFE
:102430000001002024040140000001409801002018
:10244000000000000000D03F7B14AE47E17A943FCB
:102450000000000000407F40B3EA73B515FBF63F73
:10246000333333333333D33F666666666666E63F9F
:10247000CDCCCCCCCCCCEC3F9A9999999999D93FB9
:102480000000000000108B400000000000005E40D3
:10249000333333333333E33F721CC7711CC7E13F1F
:1024A0005800002005E053EC1D2BFDF730FF41ECF8
:1024B0001A0B51EC1A0BFEF748F8A8F82200F08925
:1024C000FEF717F853EC1E2BFDF721FFCDE90201B3
:1024D0003089FEF70EF853EC1F2BFDF718FF41EC87
:1024E0001A0B7088FEF705F853EC1C2BFDF70FFF55
:1024F00053EC1A2BFDF764FE9DED021B53EC112BE0
:10250000FDF75EFE53EC1D2BFDF701FF53EC1B2B7B
:10251000FEF74CF826D2F089FDF7EBFF53EC1E2BAB
:10252000FDF7F5FE41EC1A0B3089FDF7E2FF53ECA5
:102530001F2BFDF7ECFE41EC1B0B7088FDF7D9FF5C
:1025400053EC1C2BFDF7E3FE53EC1B2BFDF738FE81
:1025500053EC1A2BFDF734FE53EC1D2BFDF7D7FE81
:1025600041EC1B0B51EC1B0BFDF7EFFF80B2A8F801
:102570002400B8F8221040F6C412914208D8B0F5F1
:10258000166F05D8B8F8200040F68C21884203D990
:1025900088F8134088F80B40B089FDF7AAFF53EC88
:1025A0001E2BFDF7B4FE41EC1A0BF088FDF7A1FFDE
:1025B00053EC1F2BFDF7ABFE41EC1B0B3088FDF7F6
:1025C00098FF53EC1C2BFDF7A2FE53EC1B2BFDF7E1
:1025D000F7FD53EC1A2BFDF7F3FD53EC1D2BFDF724
:1025E00096FE9FEDFD1B53EC112BFDF7C7FF02D2AA
:1025F000B8F8220001E040F2C440A8F82200F089B7
:10260000FDF777FF53EC1E2BFDF781FE41EC1A0B13
:102610003089FDF76EFF53EC1F2BFDF778FE41EC80
:102620001B0B7088FDF765FF53EC1C2BFDF76FFE4D
:1026300053EC1B2BFDF7C4FD53EC1A2BFDF7C0FD2B
:1026400053EC1D2BFDF763FE9FEDE51B53EC112BA7
:10265000FDF794FF02D2B8F8240001E040F6340000
:10266000A8F82400308AFDF744FF53EC1E2BFDF739
:102670004EFE41EC1A0B7089FDF73BFF53EC1F2B0C
:10268000FDF745FE41EC1B0BB088FDF732FF53EC24
:102690001C2BFDF73CFE53EC1B2BFDF791FD53EC7F
:1026A0001A2BFDF78DFD53EC1D2BFDF730FE9FED32
:1026B000CEAB53EC1A2BFDF779FF26D2308AFDF70B
:1026C00018FF53EC1E2BFDF722FE41EC1A0B70890C
:1026D000FDF70FFF53EC1F2BFDF719FE41EC1B0B11
:1026E000B088FDF706FF53EC1C2BFDF710FE53ECF2
:1026F0001B2BFDF765FD53EC1A2BFDF761FD53EC29
:102700001D2BFDF704FE41EC1A0B51EC1A0BFDF7E3
:102710001CFFA8F8200002F0ADF8B8F8240040F241
:102720002D31884211D998F8111071B14946B0483D
:10273000FFF7FAF888F80C40019402942869009099
:1027400095E80F00FEF77EFB03E0D72801D288F85A
:102750000CA0B8F82200FDF7CCFE0F4606469FED10
:10276000A5FB53EC1F2BFDF7D2FD41EC1B0B47ECF7
:102770001A6B9FEDA2DB51EC1A0B53EC1D2BFDF7EE
:10278000C6FD53EC1A2BFDF7C2FD53EC1B2BFDF7D6
:10279000B8FD9FED9CEB53EC1E2BFDF711FD41ECBA
:1027A0001B0BB8F82400FDF7A4FE47EC1A6B41ECB4
:1027B0001C0B53EC1F2B51EC1A0BFDF7A8FD47EC3B
:1027C0001A6B41EC1F0B53EC1D2B51EC1A0BFDF750
:1027D0009EFD53EC1A2BFDF79AFD53EC1F2BFDF7D2
:1027E00090FD53EC1E2BFDF7EBFC53EC1C2BFDF77F
:1027F00088FD53EC1B2BFDF7FCFD41EC100B9FED0E
:10280000831B01F061F89FED831B51EC100B53EC1F
:10281000112BFDF7CBFE01D388F80D4098F8060088
:102820007E4F0F2815D3D8F82C000F21B0FBF1F202
:1028300001FB120068B9386880F480703860142198
:102840003020CDE901017648016900910FC8FEF7FB
:10285000F9FAD8F82C100520B1FBF0F200FB1210A9
:102860009FED70BB9FED71CB00286BD17148017B50
:10287000407B41EA00214FF6FF70401AFDF739FE18
:102880009FED6D1B53EC112BFDF7B3FD9FED6C1B02
:1028900053EC112BFDF73BFD9FED6B1B53EC112B04
:1028A000FDF7A7FD53EC1B2BFDF731FD9FED681BDA
:1028B00053EC112BFDF72BFDFDF790FEC8F830000F
:1028C00098F80E0010B198F80F10D9B1624E9FED34
:1028D00063AA00287BD098F80F000028FAD098F857
:1028E0000110DFF87C91022972D004292AD3B8F8AC
:1028F0002020B2F5AF6F25D2062901D0022868D07A
:1029000017E1FDE398F8110060B998F80D000A2866
:1029100008D049463648FFF709F898F80000012822
:1029200011D0ECE0019402942869009095E80F0022
:10293000FEF788FA386880F48070386049462C4881
:10294000FEF7F2FF88E298F80C00002842D03868C1
:1029500080F480703860B8F82460782E3BD098ED11
:10296000100B53EC102B98ED0E0B51EC100BFDF7E8
:1029700027FC53EC182BFDF7CAFCFDF72FFE00EEE9
:10298000100A3046D8ED0C0AFEF7D2FFFDF7B1FD74
:1029900041EC190BB8F8240006467838FDF798FD8D
:1029A0009FED30DB53EC1D2BFDF723FD9FED2FAB8F
:1029B00053EC1A2BFDF7ABFC53EC192BFDF7A1FCE4
:1029C000FDF7C3FDC0F30720C0F1FF0052E02BE28A
:1029D000A2E0ABE093E089E000000000001093402B
:1029E000000000000068A040000000000034944097
:1029F00000180240448B6CE7FBE92240A7E7DD5852
:102A00005018843F9A99999999C98D400000000007
:102A1000000000407B14AE47E17A843F141402406A
:102A200014010020000000000000594000000000D8
:102A30000000E0BF2801002000000000C0FFDF40D0
:102A40000000000000002A40000000000000444098
:102A5000B3EA73B515FBF63FC0010020000000008B
:102A6000EC0000200000000000F09E40000000008C
:102A700080CCDC4098ED100B40F0800953EC102B1B
:102A800098ED0E0B51EC100BFDF79AFB53EC182B45
:102A9000FDF73DFCFDF7A2FD00EE100A3046D8ED33
:102AA0000C0AFEF745FFFDF724FD41EC190BB8F8C1
:102AB00024007838FDF70CFD53EC1D2BFDF799FC35
:102AC00053EC1A2BFDF723FC53EC192BFDF719FCE3
:102AD000FDF73BFDC0B2C0F1FF00CDE90109286957
:102AE000009095E80F00FEF7ADF9B5E1019402946E
:102AF0002869009095E80F00FEF7A4F9ACE1019475
:102B000002942869009095E80F00FEF79BF9386859
:102B100080F4807038609FE101940294D9F810002D
:102B20000090B9E80F00FEF78DF995E198F81420B0
:102B30008AB1062909D0012807D0032805D0042826
:102B400003D098F814000028CFD098F81400E0B310
:102B50006428CAD1BAE0082006EB800191ED000A92
:102B6000411C06EB810181ED000A401E0028F3DACA
:102B700099F80CB0BBF1140F21D299F80D00FDF7B4
:102B8000B8FCB0EE4B1AF0EE6B1A53EC112BFDF7BC
:102B900030FC41EC1A0B5846FDF7ABFC53EC1A2BFA
:102BA000FDF70EFB9FEDFE1B53EC112BFDF7AFFB6A
:102BB00053EC182BFDF7ABFBFDF710FD3060A8F8C8
:102BC0002A40002006EB800100E035E0D1ED000A4C
:102BD000B8F82A1000EE101AB8EE400A30EE800A5B
:102BE000BCEEC00A10EE101AA8F82A10401C0A28E1
:102BF000E8DBB8F82A00FDF77CFC53EC192BFDF755
:102C000086FBFDF7A2FC80B2A8F82A00396881F49F
:102C100080713960FF21A1EB1021C0B241F0800129
:102C2000C0F1FF00CDE90101D9F810000090B9E82A
:102C30000F00FEF707F90FE1082006EB800191ED88
:102C4000000A411C06EB810181ED000A401E0028AC
:102C5000F3DA86ED00AAA8F82A40002006EB8001EE
:102C6000D1ED000AB8F82A1000EE101AB8EE400AAA
:102C700030EE800ABCEEC00A10EE101AA8F82A1036
:102C8000401C0A28EADBB8F82A00FDF732FC53ECB6
:102C9000192BFDF73CFBFDF758FC80B2A8F82A0081
:102CA000FF21A1EB1021C0B241F08001C0F1FF0073
:102CB000CDE90101D9F810000090B9E80F00FEF746
:102CC000C1F8386880F480703860C5E098ED100B6A
:102CD00053EC102B98ED0E0B51EC100BFDF770FA26
:102CE000B0EE4CAAF0EE6CAA53EC1A2BFDF70FFBDA
:102CF00053EC192BFDF742FC08D201940294286989
:102D0000009095E80F00FEF79DF8A5E098ED100BF8
:102D100053EC102B98ED0E0B51EC100BFDF750FA05
:102D200053EC1A2BFDF7F3FA41EC100B1FEDC9FB26
:102D3000B0EE4F1AF0EE6F1A00F0C6FD9FED9ADB71
:102D400051EC100B53EC1D2BFDF7E1FA98ED100B35
:102D500041EC190B53EC102B98ED0E0B51EC100BB2
:102D6000FDF72EFA53EC1A2BFDF7D1FA41EC100BBC
:102D70009FED8F1B00F0A8FD9FED8FEB51EC100B2A
:102D800053EC1E2BFDF7C3FA53EC192BFDF718FA81
:102D9000FDF7DBFB98ED100BC0F3072653EC102B6F
:102DA00098ED0E0B51EC100BFDF70AFA53EC1A2BB1
:102DB000FDF7ADFA41EC100BB0EE4F1AF0EE6F1AC2
:102DC00000F082FD53EC1D2B51EC100BFDF79FFA28
:102DD00098ED100B41EC190B53EC102B98ED0E0BEA
:102DE00051EC100BFDF7ECF953EC1A2BFDF78FFAB1
:102DF00041EC100B9FED6E1B00F066FD53EC1E2B9B
:102E000051EC100BFDF783FA53EC192BFDF7D8F9B1
:102E1000FDF79BFBC0B2CDE901062869009095E85B
:102E20000F00FEF70FF817E0019402942869009054
:102E300095E80F00FEF706F8386880F48070386077
:102E400049465F48FEF770FD092006EB800181EDE1
:102E500000AA401E0028F8DAD8F82C100A20B1FB8E
:102E6000F0F200FB1210574E4FF06409F0BB98F8D7
:102E70001200F07298ED100B53EC102B98ED0E0B26
:102E800051EC100BFDF79CF953EC1C2BFDF73FFAAE
:102E90009FED4D1B53EC112BFDF770FB31D298F8D1
:102EA000010004282BD00220B07498ED100B53ECD5
:102EB000102B98ED0E0B51EC100BFDF781F98346AA
:102EC00053EC182B0591FDF722FAFDF71FFB307329
:102ED000059953EC182B41EC10BB51EC100BFDF78E
:102EE00016FA53EC1B2BFDF712FA00E047E0FDF752
:102EF0000DFB90FBF9F109FB1100707330E003202A
:102F0000D2E798F80100042801D0012000E0002059
:102F1000B07498ED100B53EC102B98ED0E0B51EC98
:102F2000100BFDF74DF9834653EC1C2B0491FDF774
:102F3000EEF9FDF7EBFA3073049953EC1C2B41ECDE
:102F400010BB51EC100BFDF7E2F953EC1B2BFDF716
:102F5000DEF9FDF7DBFA90FBF9F109FB1100707364
:102F60001B48817BB173C07BF0731A48417B31747D
:102F7000007B7074306900900FCEFEF7A3FED8F886
:102F80002C004FF00A0BB0FBFBF10BFB1100E8BB70
:102F9000386880F08000386098F80F000E4E1DE011
:102FA0009A99999999EF85407B14AE47E1FA2340AD
:102FB00000000000000008401D5A643BDF4FD5BFF1
:102FC00000180240C40000200000000000000000C3
:102FD000880000202801002074000020F07298ED85
:102FE000100B53EC102B98ED0E0B51EC100BFDF762
:102FF000E7F89FEDB91B53EC112BFDF788F9FDF7AE
:10300000A4FA3073B648017B717300E012E0407B94
:10301000B07398F80A00F07398F81200307498F8BA
:103020001400707498F81300B074306900900FCEDB
:10303000FEF75EF8D8F82C000526B0FBF6F106FB8B
:10304000110060B998F80F0048B1386880F080002E
:103050003860A448016900910FC8FEF749F898F854
:103060000F00A14F012801D002281DD198F81500AA
:10307000D0B998F80100B8B198F8030008B188F801
:1030800010A088F803404FF400513846FEF74CFC7E
:103090004FF400719548FEF749FC80219448FEF7F3
:1030A00045FC042088F80F0004213846FEF72EFC6A
:1030B0000100904803D098F80F1011B330E098F851
:1030C0000F1061B9D8F82C10B1FBF6F206FB121103
:1030D00029B9C472016900910FC8FEF709F888F890
:1030E0000F404FF400513846FEF71EFC4FF40071BC
:1030F0007E48FEF719FC80217D48FEF715FC0FE0A5
:10310000E5E098F8121059B198F8161041B980F816
:103110000BA0016900910FC8FDF7EAFF88F80FA026
:10312000724F98F800101437A1B1B8F8180096281B
:1031300010D82821B0FBF1F201FB12022AB11430A1
:10314000B0FBF1F201FB120088B9386880F008008A
:1031500038600CE0B8F81800972800D239B998F810
:103160001000032803D108216048FEF7DFFB98F820
:1031700010004FF0030A10B1012836D11AE0B8F858
:103180001A0096280DD2401C80B2A8F81A00B0FB95
:10319000FBF10BFB1100F8B9386880F008003860CB
:1031A00023E008215148FEF7C1FBA8F81A4088F82F
:1031B00010A01AE0B8F81A00B0F5E16F0DD2401C6B
:1031C00080B2A8F81A00B0FBF9F109FB110018B998
:1031D000386880F00800386007E008214348FEF7AF
:1031E000A5FBA8F81A4088F810A098F80B00E8B1E1
:1031F00098F80100D0B198F80200B8B198F806002C
:103200001E2813D898F8050028280FD898F804002D
:1032100028280BD898F80900282807D898F807001C
:10322000282803D898F8080064280BD988F80E409D
:1032300001940294286900900FCDFDF703FE88F8F1
:10324000004002E0C82088F81300D8F82C001E289F
:1032500034D198F806001E2801D988F813A098F8F0
:103260000500282802D9042088F8130098F80400E3
:10327000282801D988F8136098F80900282802D96D
:10328000062088F8130098F80700282802D907209C
:1032900088F8130098F80800282802D9082088F830
:1032A000130015A000F0E6FA98F8170008B1401EC8
:1032B00000E0002088F81700C8F82C4001210F48D2
:1032C00000F083F8D8F82C00401CC8F82C0007B098
:1032D000BDEC108BBDE8F08FCDCCCCCCCCCCFCBF02
:1032E000D8000020B000002000100240000C024076
:1032F000001802409C000020360A0000000C00402C
:1033000070B588B005460C4601210220FEF76CFC22
:1033100001210420FEF73EFCC020069003208DF81A
:103320001D0002208DF81C0001208DF81E008DF874
:103330001F00224E06A93046FEF79AFA0322062104
:103340003046FEF7D3FA032207213046FEF7CEFAC5
:103350001B4E304600F048F803A800F0EBF9ADF83A
:103360000C4004950024ADF80E40ADF814408DF8E3
:10337000164003A9304600F09FF900231A460321A6
:10338000304600F007F9684600F05AF9ADF80840F9
:103390006946304600F023F90121304600F012F86A
:1033A00001221146304600F053F9054824300460EC
:1033B0000121304600F00CF808B070BD0008024052
:1033C00000040140C94301827047C943018270472C
:1033D000002904D0018841F0010101807047018873
:1033E00021F001010180704710B55D49884209D183
:1033F00001210846FEF706FC0021BDE8104001202F
:10340000FEF700BCB0F1804F0CD05649884213D172
:1034100001210220FEF7DAFB0021BDE81040022066
:10342000FEF7D4BB01210846FEF7D0FB0021BDE822
:1034300010400120FEF7CABB4B49884209D1012147
:103440000420FEF7C3FB0021BDE810400420FEF776
:10345000BDBB4649884209D101210820FEF7B6FBD1
:103460000021BDE810400820FEF7B0BB404988426B
:1034700009D101211020FEF7A9FB0021BDE8104071
:103480001020FEF7A3BB3B49884209D1012120202F
:10349000FEF79CFB0021BDE810402020FEF796BB04
:1034A0003549884209D101210220FEF7ABFB0021FA
:1034B000BDE810400220FEF7A5BB304988420AD182
:1034C00001210C042046FEF79DFB2046BDE810407C
:1034D0000021FEF797BB2A4988420AD101214C04FA
:1034E0002046FEF78FFB2046BDE810400021FEF786
:1034F00089BB244988420AD101218C042046FEF769
:1035000081FB2046BDE810400021FEF77BBB1E4931
:10351000884209D101214020FEF758FB0021BDE877
:1035200010404020FEF752BB1849884209D10121C2
:103530008020FEF74BFB0021BDE810408020FEF705
:1035400045BB134988420AD1841501212046FEF764
:103550003DFB2046BDE810400021FEF737BB10BD03
:10356000000001400004004000080040000C004042
:1035700000100040001400400004014000400140E1
:10358000004401400048014000180040001C004079
:103590000020004070B50589048B068C25F00705D6
:1035A0000D434FF6FC410C4040F201110C4326F054
:1035B00022064FF6FF7101EA0311114331430581E1
:1035C0000483018470BD02460020138A0B40928957
:1035D0000A40002B02D0002A00D00120704770B5AD
:1035E00006460C4625886188A2882389002D0CD0C8
:1035F000042D13D0082D1AD03046FEF786FCE18842
:103600003046BDE8704000F04BB83046FEF732FC63
:10361000E1883046BDE8704000F026B83046FEF73D
:1036200040FCE1883046BDE8704000F025B83046E7
:10363000FEF752FCE1883046BDE8704000F028B843
:1036400000210180418001228280C1800181704778
:10365000002A03D082890A438281704782898A4383
:103660008281704741627047028B22F00C02028314
:10367000028B0A4302837047028B22F4406202836A
:10368000028B4FF6FF7303EA01210A43028370475E
:10369000828B22F00C028283828B0A4382837047E2
:1036A000828B22F440628283828B4FF6FF7303EA9F
:1036B00001210A438283704730B50288164C174DAA
:1036C000A0420DD0A8420BD0B0F1804F08D0144BCF
:1036D000984205D0134B984202D0134B984203D125
:1036E00022F070034A881A43104B984206D0104BC0
:1036F000984203D022F440730A891A4302804A6830
:10370000C2620A880285A04201D0A84201D1897A0A
:1037100001860121818230BD00000140000401408A
:103720000004004000080040000C00400010004071
:10373000001400404FF0FF31416000210180018101
:1037400041808172704700003EB504460D4601215C
:103750000820FEF72DFA0194ADF800500020ADF8D6
:103760000200ADF80800074C69462046FFF7A4FFA9
:10377000012211462046FFF76BFF01212046FFF78B
:1037800027FE3EBD000C0040002904D0818941F491
:10379000005181817047818921F4005181817047F6
:1037A0000246002012880A4200D001207047000023
:1037B0007FB504460D46208A20F44051E88808432E
:1037C0002082A08941F20C618843A9882A8911438B
:1037D0006A8902431143A181A08A20F44071A8891B
:1037E0000843A0826846FEF71BFA1E48844202D0B6
:1037F0001D48844201D1039800E00298A189090480
:1038000008D500EBC00101EB001029684900B0FBAE
:10381000F1F007E000EBC00101EB0010296889001E
:10382000B0FBF1F06422B0FBF2F109010B096FF07B
:1038300018056B4300EB8300A3891D044FF032038E
:1038400007D503EBC000B0FBF2F000F0070008431F
:1038500006E003EB0010B0FBF2F000F00F000843AD
:1038600020817FBD0010014000140140C1F3080118
:10387000818070470FB4054B10B503A9044A029824
:1038800000F030FF10BC5DF814FB00005148000848
:103890005C01002003B401984100009850EAC12067
:1038A00018BF04204A0D18BF40F0010040F2FF721B
:1038B000B2EB515F08BF40F00200012808BF0520AD
:1038C00002B07047000000002DE9F04D2DED040B13
:1038D0002DED0E8B96B0DDE92550279CDDF890A0EC
:1038E00025F0004624F00048BAF1000F14BF012172
:1038F000002101EB4502FC4953184A1093422AD398
:10390000002814BF0123002303EB44030B44F749B1
:103910008B4220D358EA00019FEDF59B76D0DFF86B
:10392000D8B35D4503D1BAF1000F05D188E0BAF1F3
:10393000000F08BF002100D0012101EB450111F566
:10394000001F08D8002814BF0121002101EB440109
:1039500011F5001F0BD99DED261B9DED240B16B014
:10396000BDEC0E8B04B0BDE8F04D00F069BE002741
:10397000002DBCBFE149884521DAE1498845A8BF4F
:1039800002271CDAC3451ADCDE4901EB2851142951
:1039900008DDC1F1340220FA02F101FA02F282429A
:1039A0000DD108E058B9C1F1140228FA02F101FA68
:1039B00002F2424503D101F00101C1F1020756EACA
:1039C0000A0124D1002C22DA002D18BF022F01D0C9
:1039D000012F0AD0022000F07FFE16B0BDEC0E8B46
:1039E00004B0BDE8F04D00F013BE022000F074FEFC
:1039F00000F00EFE51EC100B81F0004141EC100B79
:103A000016B0BDEC0E8B04B0BDE8F08D18E09FED54
:103A1000BEAB9FEDBF8B002871D1B848804522D145
:103A200005F1804010F5801008BFBAF1000F07D0F3
:103A3000B3450ADC002CA8BF9DED260BE0DA0DE0B3
:103A4000B0EE490AF0EE690ADAE7002C06DA9DEDDD
:103A5000260B51EC100B81F000416FE0AE4878442A
:103A600090ED000BCCE7D8454DD1002C48DA2EB1B3
:103A700086423AD1BAF1000F42D126E0BAF1000FE6
:103A800013D0022000F028FE00F0F6FD8DED020BB1
:103A90009DED240B8DED000B10EE900A039961F360
:103AA0001E0003909DED020BAAE78DED02AB9DED8C
:103AB000240B1AEE901A10EE900A8DED000B61F3B4
:103AC0001E0003909DED020B9AE78DED028B9DED9C
:103AD000240B18EE901A10EE900A8DED000B61F396
:103AE0001E0003909DED020B8AE709DA9DED240B81
:103AF00051EC190B53EC102BFCF77BFC1EE020E083
:103B00009DED240B7CE786421BDAB4F1804F0DD08B
:103B1000A4F10050B0F1FF5013D1002D11DB9DED49
:103B2000240B51EC100B00F02DFF07E09DED240B52
:103B300053EC102B51EC100B00F0C2BC41EC100BFD
:103B40005EE79DED240B51EC100B00F075FEBAF111
:103B5000000FCDE90E0142D19FED710B46B3A6F1E6
:103B6000E040B0F17F600CD05E4538D1002D00DA26
:103B7000A7B3022F0CBF01204FF0FF30FCF7A8FCC9
:103B8000DCE7002D01DD002C0DDA002D01DD002C1D
:103B90001FDB002D16DA002C14DB012F08BF9FED70
:103BA000620B3FF42DAFB0EE4A0AF0EE6A0A27E747
:103BB000022F18BF002D0CD0012F0AD1002DFFF6C7
:103BC0001FAF06E0002DB8BF002C08DA012F3FF42C
:103BD00017AFB0EE480AF0EE680A11E71BE00120CB
:103BE00000EBE57050EA070115D0791EB0EE498A66
:103BF000F0EE698A084308BF9FED4D8B4E480025C3
:103C0000804570DD4D494E48884514DDB0420DDBDE
:103C1000002C19DB2FE0012000F05EFD16B0BDEC9A
:103C20000E8B04B0BDE8F04D00F016BDB34502DCCC
:103C3000002C09DC1FE0864202DA002C1BDA03E0CC
:103C40005E452BDD002C16DD022000F045FD00F066
:103C500013FD8DED020B53EC1A2B51EC180BFCF7F6
:103C600056FBCDE900010399019861F31E00039012
:103C70009DED020BC4E6022000F02EFD00F00CFDCD
:103C800010EE901A18EE900A8DED020B8DED008B60
:103C900061F31E0003909DED020BB1E69DED0E0B4E
:103CA00053EC192B51EC100BFCF72BFB9FED260B63
:103CB000CDE9080153EC102B9DED080B51EC100BD6
:103CC000FCF725FB9FED221B53EC112BFCF71CFB93
:103CD0009DED081B53EC112BFCF719FB9FED1E1BF0
:103CE00053EC112B3CE08CE0FFFF1F00FFFF0F00A7
:103CF000000000000000F03F0000F03F0000F07FF7
:103D00000000404301FCFFFF000000000000F07FC6
:103D100000000000000000001E1000000000000075
:103D20000000000000000080000000000000F0FF24
:103D3000000000000000F0BF0000E0410000F04380
:103D4000FFFFEF3F00000000000000000000D03F38
:103D5000555555555555D53F000000000000E03F32
:103D6000FCF7D2FA9DED080B41EC1A0B53EC102B2B
:103D700051EC100BFCF7CBFA53EC1A2BFCF7C7FAFB
:103D800041EC1A0B9FEDFE0B53EC102B9DED080B35
:103D900051EC100BFCF7BBFA41EC1B0B9FEDFA0B3F
:103DA00051EC1A0B53EC102BFCF7B1FA41EC1A0B47
:103DB0009FEDF70B53EC102B9DED080B51EC100B06
:103DC000FCF7A5FA53EC1A2BFCF79BFA41EC1A0B03
:103DD00051EC1B0B53EC1A2BFCF7F2F90690CDE9D2
:103DE00006519DED060B53EC1B2B51EC100BFCF711
:103DF00088FA53EC1A2BFCF787FA41EC100B00F011
:103E0000A1B90020B6F5801F0EDA9FEDE30B53EC4D
:103E1000102B9DED0E0B51EC100BFCF778FACDE951
:103E20000E016FF034000E4600EB2650A0F2FF3773
:103E3000C6F31300DA4940F07F6646F040568842E8
:103E4000D8BF002408DDD7498142C8BF012403DC64
:103E50000024A6F580167F1CD348784400EBC400EC
:103E60000F9690ED00CB9DED0E0B53EC1C2B51ECFF
:103E7000100BFCF746FA9DED0E0B41EC1B0B53ECBF
:103E80001C2B51EC100BFCF79BF941EC100B51EC87
:103E9000190B53EC102BFCF7ACFA41EC1D0B51EC59
:103EA0001B0B53EC1D2BFCF732FA41EC1A0BBF48ED
:103EB0008DED10AB7844109590ED000B4FF0005055
:103EC00040EA660000EB84408DED080B00F5002011
:103ED00009909DED080B53EC1C2B51EC100BFCF7DB
:103EE00010FA9DED0E1B53EC112BFCF70DFA41EC73
:103EF000100B53EC102B9DED100B51EC100BFCF73D
:103F000006FA9DED080B41EC1C0B53EC102B9DEDBC
:103F1000100B51EC100BFCF7FAF953EC1B2BFCF7D0
:103F2000F3F953EC1C2BFCF7ECF953EC1D2BFCF7CD
:103F3000EEF941EC1C0B53EC1A2B51EC1A0BFCF76D
:103F4000E6F941EC1B0B9A480621B0EE4B0AF0EE65
:103F50006B0A784400F0E0FAB0EE401AF0EE601A16
:103F6000B0EE41DAF0EE61DA53EC1B2B51EC1B0B97
:103F7000FCF7CDF953EC1D2BFCF7C9F99DED100BA7
:103F800041EC1B0B53EC1A2B51EC100BFCF718F9FE
:103F900053EC1C2BFCF7BBF953EC1B2BFCF710F973
:103FA0009DED100B41EC1B0B53EC102B51EC100B47
:103FB000FCF7ADF941EC1D0B9FED7FEB53EC1E2B95
:103FC000FCF7FEF853EC1B2BFCF7FAF80890CDE950
:103FD00008519DED080B53EC1E2B51EC100BFCF718
:103FE00090F953EC1D2BFCF78CF953EC1B2BFCF7D1
:103FF0008BF99DED080B41EC1D0B53EC102B9DED47
:10400000100B51EC100BFCF782F941EC1B0B53EC3D
:104010001A2B51EC1D0BFCF77AF99DED080B41ECC6
:104020001A0B53EC102B51EC1C0BFCF770F953ECF2
:104030001A2BFCF7C5F841EC1A0B51EC1B0B53EC97
:104040001A2BFCF7BDF80C90CDE90C519DED0C0B33
:1040500053EC1B2B51EC100BFCF753F953EC1A2BC0
:10406000FCF752F941EC1B0B9FED550B53EC102B59
:104070009DED0C0B51EC100BFCF749F941EC1A0BC0
:104080009FED510B51EC1B0B53EC102BFCF73FF940
:1040900041EC1B0B9FED4E0B53EC102B9DED0C0BCD
:1040A00051EC100BFCF733F953EC1B2BFCF788F8A1
:1040B00041EC100B4848784400EBC40090ED001B25
:1040C00051EC100B53EC112BFCF77AF841EC1B0B65
:1040D0003846FCF7FDF9CDE9080153EC1B2B51ECF8
:1040E0001A0BFCF76DF841EC100B3C48784400EBE0
:1040F000C40090ED00CB51EC100B53EC1C2BFCF7E3
:104100005FF89DED081B53EC112BFCF759F8069056
:10411000CDE906519DED080B53EC102B9DED060BE0
:1041200051EC100BFCF7EDF853EC1C2BFCF7E9F805
:1041300053EC1A2BFCF7E5F853EC1B2BFCF7E4F8D7
:1041400041EC100B9DED261B53EC102B8DED001B4D
:1041500000959DED260B51EC100BFCF7D8F89DED6A
:10416000000B41EC1A0B53EC102B9DED260B51EC80
:10417000100BFCF7C6F89DED061B53EC112B2FE03E
:10418000000000604715F73FFE822B654715F73F9B
:1041900044DF5DF80BAE543E0000000000004043D9
:1041A0008E9803007AB60B009A0B0000C80B000033
:1041B000D20A0000000000000000000000000840DB
:1041C000000000E009C7EE3FFD033ADC09C7EE3FFF
:1041D000F5015B14E02F3EBE5E09000018090000E7
:1041E000FCF795F853EC1A2BFBF7EAFF9DED060B55
:1041F00041EC1A0B53EC102B9DED000B51EC100B06
:10420000FCF785F8CDE90C019DED0C0B51EC1A0B78
:1042100053EC102BFBF7D4FFCDE902010C46AA4961
:104220008C422FDB611A084318D19DED0C0B53EC27
:10423000102B9DED020B51EC100BFCF762F841ECDA
:104240001B0B9FEDA30B51EC1A0B53EC102BFBF740
:10425000B7FF53EC1B2BFCF7A9F92DD2022000F07D
:104260003BFA00F009FA10EE901A18EE900A8DED64
:10427000020B8DED008B61F31E0003909DED020B90
:10428000FFF7BEBB944A24F00041914214D39349F6
:10429000214408437FF4EFAC9DED0C0B53EC102B45
:1042A0009DED020B51EC100BFCF72BF853EC1A2B85
:1042B000FCF77CF97FF6DFAC24F000408849894A9E
:1042C000002601EB205182422BDA481C4FF480116A
:1042D00021FA00F02044844AC0F30A517A44A1F242
:1042E000FF3192ED000B814A8DED080BCA4020EAA8
:1042F0000202C0F3130040F48010C1F1140120FA4F
:1043000001F60992002CB8BF76429DED080B53ECE4
:10431000102B9DED0C0B51EC100BFBF7F2FFCDE9D0
:104320000C019DED0C0B51EC1A0B53EC102BFBF711
:1043300047FF9FED6F0B0890CDE9085153EC102B10
:104340009DED080B51EC100BFBF7E1FF41EC1B0B53
:104350009FED690B53EC102B9DED080B51EC100BEE
:10436000FBF7D5FF9DED0C0B41EC1C0B53EC102B18
:104370009DED080B51EC100BFBF7C3FF53EC1A2B10
:10438000FBF7C2FF9FED5E1B53EC112BFBF7BFFF4A
:1043900053EC1C2BFBF714FF41EC1A0B51EC1B0BDD
:1043A00053EC1A2BFBF70CFFCDE902019DED020B3C
:1043B00053EC1B2B51EC100BFBF7A3FF53EC1A2B08
:1043C000FBF7A2FF9DED020B41EC1A0B53EC102BF7
:1043D00051EC100BFBF79BFFCDE908014A489DED1E
:1043E000080B0521784400F097F89DED081B51EC6F
:1043F000100B53EC112BFBF78AFF9DED021B53ECC6
:10440000112BFBF781FFCDE906019DED020B53EC6B
:104410001A2B51EC100BFBF77AFF53EC1A2BFBF71E
:10442000CFFE9FED3B0B41EC1A0B53EC102B9DED97
:10443000060B51EC100BFBF764FF9DED060B41ECF6
:104440001B0B53EC102B9DED020B51EC100BFBF7EB
:104450005EFF53EC1B2BFBF7CCFF53EC1A2BFBF747
:1044600050FF9DED021B53EC112BFBF74AFF53EC61
:10447000192BFBF749FFCDE9020101EB06500115AD
:104480000029C8BF039015DC9DED020B324651ECAC
:10449000100BFCF79AF9FFF7FDF9042808BF00F0AC
:1044A000FBF832469DED020B51EC100BFCF78DF939
:1044B000CDE902019DED020B51EC180B53EC102BD2
:1044C000FBF725FFFFF73ABB00009040000000001B
:1044D000FE822B654715973C00CC904000346F3F1F
:1044E00001FCFFFF0000E03FA0070000FFFF0F00FE
:1044F00000000000432EE63F396CA80C615C20BE32
:10450000EF39FAFE422EE63F700600000000000080
:10451000000000000000004070B504462DED028B45
:104520004D1E00EBC500B0EE408AF0EE608A90EDC3
:10453000000B35F0060017D053EC182B51EC100B84
:10454000FBF7E5FE41EC100B6D1E04EBC50090ED92
:10455000001B51EC100B53EC112BFBF731FE41EC1F
:10456000100B35F00600E7D1022D36D0042D1CD0FB
:10457000062D1CBFBDEC028B70BD53EC182B51EC0B
:10458000100BFBF7C4FE94ED0A1B53EC112BFBF749
:1045900017FE53EC182BFBF7BAFE94ED081B53ECF7
:1045A000112BFBF70DFE41EC100B53EC182B51ECCB
:1045B000100BFBF7ACFE94ED061B53EC112BFBF735
:1045C000FFFD53EC182BFBF7A2FE94ED040B53EC0C
:1045D000102BFBF7F5FD41EC100B53EC182B51ECB5
:1045E000100BFBF794FE94ED021B53EC112BFBF721
:1045F000E7FD53EC182BFBF78AFE94ED001B53EC00
:10460000112BFBF7DDFDBDEC028B41EC100B70BDF7
:104610009FED070B10B553EC102B9FED070B51ECE2
:10462000100BFBF7E6FE41EC100B10BD0000000084
:104630000000000000000000000000000000F03F4B
:1046400010B553EC112B51EC100BFBF7B9FD41ECFD
:10465000100B10BD000000009FED050B10B553ECD2
:10466000102B51EC100BFBF7C4FE41EC100B10BDEE
:1046700000000000000000009FED050B10B553EC9A
:10468000102B51EC100BFBF742FE41EC100B10BD50
:1046900000000000000000709FED050B10B553EC0A
:1046A000102B51EC100BFBF732FE41EC100B10BD40
:1046B000000000000000001002E008C8121F08C13E
:1046C000002AFAD170477047002001E001C1121F93
:1046D000002AFBD1704700000149086070470000C4
:1046E000680100202DE9FF4F89B09B460446002554
:1046F00006E025280BD05A460B999047641C6D1C88
:1047000020780028F5D10DB02846BDE8F08F0027AD
:10471000B8460122474900E0074314F8013F203B17
:1047200002FA03F00842F7D120782E2819D114F8A4
:10473000010F47F004072A280ED06FF02F022078CF
:10474000A0F1300109290CD808EB880102EB4101E6
:1047500000EB0108641CF2E70A98641C50F8048B13
:104760000A9020780028CED0642808D0692806D086
:1047700075281ED05A460B9990476D1C58E00A992F
:104780004FF00A0901C90A91002802DA40422D219E
:1047900002E0390504D52B218DF82010012103E01A
:1047A000F90704D02021F7E78A4608AE0DE0002182
:1047B000FAE70A994FF00A0901C90A91F7E7494651
:1047C000FBF728FF303106F8011D0028F7D1ADEBCB
:1047D000060000F12009780701D44FF00108C84510
:1047E00002DDA8EB090000E000208046002706E07B
:1047F00008A85A46C05D0B9990476D1C7F1C574511
:10480000F6DB04E030205A460B9990476D1CB8F156
:104810000001A8F10108F5DC05E016F8010B5A4685
:104820000B9990476D1CB9F10001A9F10109F4DC65
:10483000641C65E70928010082B0CDE9000121F080
:10484000004001909DED000B02B051EC100B704741
:1048500070B50446064DE1B22846FFF707F88021FF
:104860002846FEF79DFF0028F9D0204670BD0000C5
:104870000010014030B40E4B40F23A740D481A8CCF
:104880004FF48071A24204D901225A7430BCFDF762
:104890004BB840F27264A24207D29A7B002A04D03D
:1048A00000225A7430BCFDF741B830BC704700009C
:1048B0001000002000180240FCF732FAFCF782FBDF
:1048C000FCF75AFF532142F20F70FEF73DFFFCF751
:1048D0008DF8FCF705FFFDF7C5F8FCF707FAFCF7C4
:1048E000E7F9FCF76DF9FCF7ABF9FCF77FF9FDF799
:1048F00009FAFDF7DFF8FDF7A5F801210448FDF7F7
:1049000015F84FF480710348FDF710F8FEE700003A
:10491000000C024000180240F0B50B30154D20F09D
:1049200007010024144A0FE003688B420BD38B422B
:1049300005D95E1A43184768C3E9006700E0436879
:10494000136002C004E0021D10680028ECD120466C
:10495000002802D1286808B10020F0BD064A0748A7
:104960001060074A121A22F00702C0E90024012051
:104970002860D7E7640100206001002004020020C5
:104980000004002000B52DED048B83B041EC190B21
:10499000FBF744FF41EC180B18EE100A18EE901AC2
:1049A0008DED008B002818BF0120084320F0004047
:1049B000C0F17F6000F1E040C00F14D019EE101A72
:1049C00019EE900A8DED009B002918BF01210843C4
:1049D00020F00040C0F17F6000F1E040C00F04BF54
:1049E0000120FFF779FE51EC180B03B0BDEC048BEE
:1049F00000BD000000000000000000000000F03FCB
:104A0000000000000000F83F00000000000000006F
:104A10000000004003B8E23F00000000000000007A
:104A200006D0CF43EBFD4C3E033333333333E33F08
:104A3000FFAB6FDBB66DDB3F4D268F515555D53F34
:104A400001411DA96074D13F65DBC9934A86CD3F02
:104A5000EF4E454A287ECA3F3E5555555555C53FF0
:104A600093BDBE166CC166BF2CDE25AF6A56113FE2
:104A7000F16BD2C541BDBBBED0A4BE726937663EE4
:104A80000000000000000000A84A0008000000200C
:104A90006C010000BE080008184B00086C010020E3
:104AA00094060000C8460008412D010203040415C5
:104AB000060708097401010119091201220332C80D
:104AC0006209022A592A083E295C4904191139064B
:104AD000211203236405290429141A0A1F411A32DA
:104AE0001E29048928214B390404294DFB0279141D
:104AF0001A029CE9143A5107091578891483033185
:104B00009914FC90FC3F14643D30641A90A629046B
:084B10002105360430FF7F008F
:040000050800018965
:00000001FF
